{
  "_format": "hh-sol-artifact-1",
  "contractName": "ExitVault",
  "sourceName": "contracts/ExitVault.sol",
  "abi": [
    {
      "anonymous": false,
      "inputs": [
        {
          "indexed": true,
          "internalType": "address",
          "name": "investor",
          "type": "address"
        },
        {
          "indexed": false,
          "internalType": "uint256",
          "name": "amount",
          "type": "uint256"
        }
      ],
      "name": "Invest",
      "type": "event"
    },
    {
      "anonymous": false,
      "inputs": [
        {
          "indexed": true,
          "internalType": "address",
          "name": "investor",
          "type": "address"
        },
        {
          "indexed": false,
          "internalType": "uint256",
          "name": "amount",
          "type": "uint256"
        }
      ],
      "name": "Withdraw",
      "type": "event"
    },
    {
      "inputs": [
        {
          "internalType": "address",
          "name": "",
          "type": "address"
        }
      ],
      "name": "balances",
      "outputs": [
        {
          "internalType": "uint256",
          "name": "",
          "type": "uint256"
        }
      ],
      "stateMutability": "view",
      "type": "function"
    },
    {
      "inputs": [
        {
          "internalType": "address",
          "name": "investor",
          "type": "address"
        }
      ],
      "name": "getBalance",
      "outputs": [
        {
          "internalType": "uint256",
          "name": "",
          "type": "uint256"
        }
      ],
      "stateMutability": "view",
      "type": "function"
    },
    {
      "inputs": [],
      "name": "invest",
      "outputs": [],
      "stateMutability": "payable",
      "type": "function"
    },
    {
      "inputs": [],
      "name": "totalInvested",
      "outputs": [
        {
          "internalType": "uint256",
          "name": "",
          "type": "uint256"
        }
      ],
      "stateMutability": "view",
      "type": "function"
    },
    {
      "inputs": [
        {
          "internalType": "uint256",
          "name": "amount",
          "type": "uint256"
        }
      ],
      "name": "withdraw",
      "outputs": [],
      "stateMutability": "nonpayable",
      "type": "function"
    },
    {
      "stateMutability": "payable",
      "type": "receive"
    }
  ],
  "bytecode": "0x608060405234801561001057600080fd5b506107af806100206000396000f3fe60806040526004361061004e5760003560e01c806327e235e3146101165780632e1a7d4d146101535780635216aeec1461017c578063e8b5e51f146101a7578063f8b2cb4f146101b157610111565b3661011157346000803373ffffffffffffffffffffffffffffffffffffffff1673ffffffffffffffffffffffffffffffffffffffff16815260200190815260200160002060008282546100a19190610515565b9250508190555034600160008282546100ba9190610515565b925050819055503373ffffffffffffffffffffffffffffffffffffffff167fd90d253a9de34d2fdd5a75ae49ea17fcb43af32fc8ea08cc6d2341991dd3872e346040516101079190610558565b60405180910390a2005b600080fd5b34801561012257600080fd5b5061013d600480360381019061013891906105d6565b6101ee565b60405161014a9190610558565b60405180910390f35b34801561015f57600080fd5b5061017a6004803603810190610175919061062f565b610206565b005b34801561018857600080fd5b5061019161038d565b60405161019e9190610558565b60405180910390f35b6101af610393565b005b3480156101bd57600080fd5b506101d860048036038101906101d391906105d6565b610494565b6040516101e59190610558565b60405180910390f35b60006020528060005260406000206000915090505481565b806000803373ffffffffffffffffffffffffffffffffffffffff1673ffffffffffffffffffffffffffffffffffffffff168152602001908152602001600020541015610287576040517f08c379a000000000000000000000000000000000000000000000000000000000815260040161027e906106b9565b60405180910390fd5b806000803373ffffffffffffffffffffffffffffffffffffffff1673ffffffffffffffffffffffffffffffffffffffff16815260200190815260200160002060008282546102d591906106d9565b9250508190555080600160008282546102ee91906106d9565b925050819055503373ffffffffffffffffffffffffffffffffffffffff166108fc829081150290604051600060405180830381858888f1935050505015801561033b573d6000803e3d6000fd5b503373ffffffffffffffffffffffffffffffffffffffff167f884edad9ce6fa2440d8a54cc123490eb96d2768479d49ff9c7366125a9424364826040516103829190610558565b60405180910390a250565b60015481565b600034116103d6576040517f08c379a00000000000000000000000000000000000000000000000000000000081526004016103cd90610759565b60405180910390fd5b346000803373ffffffffffffffffffffffffffffffffffffffff1673ffffffffffffffffffffffffffffffffffffffff16815260200190815260200160002060008282546104249190610515565b92505081905550346001600082825461043d9190610515565b925050819055503373ffffffffffffffffffffffffffffffffffffffff167fd90d253a9de34d2fdd5a75ae49ea17fcb43af32fc8ea08cc6d2341991dd3872e3460405161048a9190610558565b60405180910390a2565b60008060008373ffffffffffffffffffffffffffffffffffffffff1673ffffffffffffffffffffffffffffffffffffffff168152602001908152602001600020549050919050565b6000819050919050565b7f4e487b7100000000000000000000000000000000000000000000000000000000600052601160045260246000fd5b6000610520826104dc565b915061052b836104dc565b9250828201905080821115610543576105426104e6565b5b92915050565b610552816104dc565b82525050565b600060208201905061056d6000830184610549565b92915050565b600080fd5b600073ffffffffffffffffffffffffffffffffffffffff82169050919050565b60006105a382610578565b9050919050565b6105b381610598565b81146105be57600080fd5b50565b6000813590506105d0816105aa565b92915050565b6000602082840312156105ec576105eb610573565b5b60006105fa848285016105c1565b91505092915050565b61060c816104dc565b811461061757600080fd5b50565b60008135905061062981610603565b92915050565b60006020828403121561064557610644610573565b5b60006106538482850161061a565b91505092915050565b600082825260208201905092915050565b7f496e73756666696369656e742062616c616e6365000000000000000000000000600082015250565b60006106a360148361065c565b91506106ae8261066d565b602082019050919050565b600060208201905081810360008301526106d281610696565b9050919050565b60006106e4826104dc565b91506106ef836104dc565b9250828203905081811115610707576107066104e6565b5b92915050565b7f4d7573742073656e642045544800000000000000000000000000000000000000600082015250565b6000610743600d8361065c565b915061074e8261070d565b602082019050919050565b6000602082019050818103600083015261077281610736565b905091905056fea2646970667358221220eacf11d8567af4ee781115ba5019eb8fbf4701f8c301fd80f5d344b674c5e36d64736f6c63430008180033",
  "linkReferences": {},
  "deployedLinkReferences": {}
}